{"abi":[{"type":"function","name":"getTxId","inputs":[{"name":"documentHash","type":"bytes32","internalType":"bytes32"}],"outputs":[{"name":"","type":"string","internalType":"string"}],"stateMutability":"view"},{"type":"function","name":"storeTxId","inputs":[{"name":"documentHash","type":"bytes32","internalType":"bytes32"},{"name":"txId","type":"string","internalType":"string"}],"outputs":[],"stateMutability":"nonpayable"}],"bytecode":{"object":"0x6080604052348015600e575f5ffd5b5061063d8061001c5f395ff3fe608060405234801561000f575f5ffd5b5060043610610034575f3560e01c8063aa29753814610038578063d2e7a64e14610068575b5f5ffd5b610052600480360381019061004d9190610184565b610084565b60405161005f919061021f565b60405180910390f35b610082600480360381019061007d91906102a0565b610124565b005b60605f5f8381526020019081526020015f2080546100a19061032a565b80601f01602080910402602001604051908101604052809291908181526020018280546100cd9061032a565b80156101185780601f106100ef57610100808354040283529160200191610118565b820191905f5260205f20905b8154815290600101906020018083116100fb57829003601f168201915b50505050509050919050565b81815f5f8681526020019081526020015f20918261014392919061053a565b50505050565b5f5ffd5b5f5ffd5b5f819050919050565b61016381610151565b811461016d575f5ffd5b50565b5f8135905061017e8161015a565b92915050565b5f6020828403121561019957610198610149565b5b5f6101a684828501610170565b91505092915050565b5f81519050919050565b5f82825260208201905092915050565b8281835e5f83830152505050565b5f601f19601f8301169050919050565b5f6101f1826101af565b6101fb81856101b9565b935061020b8185602086016101c9565b610214816101d7565b840191505092915050565b5f6020820190508181035f83015261023781846101e7565b905092915050565b5f5ffd5b5f5ffd5b5f5ffd5b5f5f83601f8401126102605761025f61023f565b5b8235905067ffffffffffffffff81111561027d5761027c610243565b5b60208301915083600182028301111561029957610298610247565b5b9250929050565b5f5f5f604084860312156102b7576102b6610149565b5b5f6102c486828701610170565b935050602084013567ffffffffffffffff8111156102e5576102e461014d565b5b6102f18682870161024b565b92509250509250925092565b7f4e487b71000000000000000000000000000000000000000000000000000000005f52602260045260245ffd5b5f600282049050600182168061034157607f821691505b602082108103610354576103536102fd565b5b50919050565b5f82905092915050565b7f4e487b71000000000000000000000000000000000000000000000000000000005f52604160045260245ffd5b5f819050815f5260205f209050919050565b5f6020601f8301049050919050565b5f82821b905092915050565b5f600883026103ed7fffffffffffffffffffffffffffffffffffffffffffffffffffffffffffffffff826103b2565b6103f786836103b2565b95508019841693508086168417925050509392505050565b5f819050919050565b5f819050919050565b5f61043b6104366104318461040f565b610418565b61040f565b9050919050565b5f819050919050565b61045483610421565b61046861046082610442565b8484546103be565b825550505050565b5f5f905090565b61047f610470565b61048a81848461044b565b505050565b5b818110156104ad576104a25f82610477565b600181019050610490565b5050565b601f8211156104f2576104c381610391565b6104cc846103a3565b810160208510156104db578190505b6104ef6104e7856103a3565b83018261048f565b50505b505050565b5f82821c905092915050565b5f6105125f19846008026104f7565b1980831691505092915050565b5f61052a8383610503565b9150826002028217905092915050565b610544838361035a565b67ffffffffffffffff81111561055d5761055c610364565b5b610567825461032a565b6105728282856104b1565b5f601f83116001811461059f575f841561058d578287013590505b610597858261051f565b8655506105fe565b601f1984166105ad86610391565b5f5b828110156105d4578489013582556001820191506020850194506020810190506105af565b868310156105f157848901356105ed601f891682610503565b8355505b6001600288020188555050505b5050505050505056fea264697066735822122094cbfe6c7ce7e3c3f0fac11ed9756707770ce675a4127d90ae028a14c34a0ed864736f6c634300081c0033","linkReferences":{}},"methodIdentifiers":{"getTxId(bytes32)":"aa297538","storeTxId(bytes32,string)":"d2e7a64e"},"id":0}