{"abi":[{"type":"function","name":"hashDocument","inputs":[],"outputs":[{"name":"","type":"bytes32","internalType":"bytes32"},{"name":"","type":"uint64","internalType":"uint64"}],"stateMutability":"view"},{"type":"function","name":"storeHash","inputs":[{"name":"hash","type":"bytes32","internalType":"bytes32"},{"name":"timestamp","type":"uint64","internalType":"uint64"}],"outputs":[],"stateMutability":"nonpayable"},{"type":"function","name":"verifyDocument","inputs":[{"name":"expected_hash","type":"bytes32","internalType":"bytes32"},{"name":"expected_timestamp","type":"uint64","internalType":"uint64"}],"outputs":[{"name":"","type":"bool","internalType":"bool"}],"stateMutability":"view"}],"bytecode":{"object":"0x6080604052348015600e575f5ffd5b506102a38061001c5f395ff3fe608060405234801561000f575f5ffd5b506004361061003f575f3560e01c80635865a22314610043578063692d92a51461005f5780638c7fd3f01461008f575b5f5ffd5b61005d600480360381019061005891906101b7565b6100ae565b005b610079600480360381019061007491906101b7565b6100e0565b604051610086919061020f565b60405180910390f35b610097610121565b6040516100a5929190610246565b60405180910390f35b815f819055508060015f6101000a81548167ffffffffffffffff021916908367ffffffffffffffff1602179055505050565b5f825f5414801561011957508167ffffffffffffffff1660015f9054906101000a900467ffffffffffffffff1667ffffffffffffffff16145b905092915050565b5f5f5f5460015f9054906101000a900467ffffffffffffffff16915091509091565b5f5ffd5b5f819050919050565b61015981610147565b8114610163575f5ffd5b50565b5f8135905061017481610150565b92915050565b5f67ffffffffffffffff82169050919050565b6101968161017a565b81146101a0575f5ffd5b50565b5f813590506101b18161018d565b92915050565b5f5f604083850312156101cd576101cc610143565b5b5f6101da85828601610166565b92505060206101eb858286016101a3565b9150509250929050565b5f8115159050919050565b610209816101f5565b82525050565b5f6020820190506102225f830184610200565b92915050565b61023181610147565b82525050565b6102408161017a565b82525050565b5f6040820190506102595f830185610228565b6102666020830184610237565b939250505056fea2646970667358221220540ca97b7633ddd6f2983e18dc375473c69522a0302fc95babd9d114e8d9078764736f6c634300081c0033","linkReferences":{}},"methodIdentifiers":{"hashDocument()":"8c7fd3f0","storeHash(bytes32,uint64)":"5865a223","verifyDocument(bytes32,uint64)":"692d92a5"},"id":0}