{"abi":[{"type":"function","name":"getAllStoredHashesAndTimestamps","inputs":[],"outputs":[{"name":"","type":"address[]","internalType":"address[]"},{"name":"","type":"bytes32[]","internalType":"bytes32[]"},{"name":"","type":"uint64[]","internalType":"uint64[]"}],"stateMutability":"view"},{"type":"function","name":"hashDocument","inputs":[],"outputs":[{"name":"","type":"bytes32","internalType":"bytes32"},{"name":"","type":"uint64","internalType":"uint64"}],"stateMutability":"view"},{"type":"function","name":"storeHash","inputs":[{"name":"hash","type":"bytes32","internalType":"bytes32"},{"name":"timestamp","type":"uint64","internalType":"uint64"}],"outputs":[],"stateMutability":"nonpayable"},{"type":"function","name":"userRecords","inputs":[{"name":"","type":"address","internalType":"address"},{"name":"","type":"uint256","internalType":"uint256"}],"outputs":[{"name":"storedHash","type":"bytes32","internalType":"bytes32"},{"name":"storedTimestamp","type":"uint64","internalType":"uint64"}],"stateMutability":"view"},{"type":"function","name":"verifyDocument","inputs":[{"name":"expected_hash","type":"bytes32","internalType":"bytes32"},{"name":"expected_timestamp","type":"uint64","internalType":"uint64"}],"outputs":[{"name":"","type":"bool","internalType":"bool"}],"stateMutability":"view"}],"bytecode":{"object":"0x6080604052348015600e575f5ffd5b506110a98061001c5f395ff3fe608060405234801561000f575f5ffd5b5060043610610055575f3560e01c80635865a22314610059578063692d92a5146100755780636f427719146100a55780638c7fd3f0146100c5578063e85d28b9146100e4575b5f5ffd5b610073600480360381019061006e9190610ad7565b610115565b005b61008f600480360381019061008a9190610ad7565b610279565b60405161009c9190610b2f565b60405180910390f35b6100ad6103e1565b6040516100bc93929190610d9d565b60405180910390f35b6100cd61086e565b6040516100db929190610e05565b60405180910390f35b6100fe60048036038101906100f99190610e89565b610a17565b60405161010c929190610e05565b60405180910390f35b5f5f5f3373ffffffffffffffffffffffffffffffffffffffff1673ffffffffffffffffffffffffffffffffffffffff1681526020019081526020015f2080549050036101bc57600133908060018154018082558091505060019003905f5260205f20015f9091909190916101000a81548173ffffffffffffffffffffffffffffffffffffffff021916908373ffffffffffffffffffffffffffffffffffffffff1602179055505b5f5f3373ffffffffffffffffffffffffffffffffffffffff1673ffffffffffffffffffffffffffffffffffffffff1681526020019081526020015f2060405180604001604052808481526020018367ffffffffffffffff16815250908060018154018082558091505060019003905f5260205f2090600202015f909190919091505f820151815f01556020820151816001015f6101000a81548167ffffffffffffffff021916908367ffffffffffffffff16021790555050505050565b5f5f5f5f3373ffffffffffffffffffffffffffffffffffffffff1673ffffffffffffffffffffffffffffffffffffffff1681526020019081526020015f208054905090505f5f90505b818110156103d557845f5f3373ffffffffffffffffffffffffffffffffffffffff1673ffffffffffffffffffffffffffffffffffffffff1681526020019081526020015f20828154811061031957610318610ec7565b5b905f5260205f2090600202015f01541480156103b857508367ffffffffffffffff165f5f3373ffffffffffffffffffffffffffffffffffffffff1673ffffffffffffffffffffffffffffffffffffffff1681526020019081526020015f20828154811061038957610388610ec7565b5b905f5260205f2090600202016001015f9054906101000a900467ffffffffffffffff1667ffffffffffffffff16145b156103c8576001925050506103db565b80806001019150506102c2565b505f9150505b92915050565b60608060605f5f5f90505b60018054905081101561048e575f5f6001838154811061040f5761040e610ec7565b5b905f5260205f20015f9054906101000a900473ffffffffffffffffffffffffffffffffffffffff1673ffffffffffffffffffffffffffffffffffffffff1673ffffffffffffffffffffffffffffffffffffffff1681526020019081526020015f20805490508261047f9190610f21565b915080806001019150506103ec565b505f8167ffffffffffffffff8111156104aa576104a9610f54565b5b6040519080825280602002602001820160405280156104d85781602001602082028036833780820191505090505b5090505f8267ffffffffffffffff8111156104f6576104f5610f54565b5b6040519080825280602002602001820160405280156105245781602001602082028036833780820191505090505b5090505f8367ffffffffffffffff81111561054257610541610f54565b5b6040519080825280602002602001820160405280156105705781602001602082028036833780820191505090505b5090505f5f90505f5f90505b60018054905081101561085a575f5f90505b5f5f600184815481106105a4576105a3610ec7565b5b905f5260205f20015f9054906101000a900473ffffffffffffffffffffffffffffffffffffffff1673ffffffffffffffffffffffffffffffffffffffff1673ffffffffffffffffffffffffffffffffffffffff1681526020019081526020015f208054905081101561084c576001828154811061062457610623610ec7565b5b905f5260205f20015f9054906101000a900473ffffffffffffffffffffffffffffffffffffffff1686848151811061065f5761065e610ec7565b5b602002602001019073ffffffffffffffffffffffffffffffffffffffff16908173ffffffffffffffffffffffffffffffffffffffff16815250505f5f600184815481106106af576106ae610ec7565b5b905f5260205f20015f9054906101000a900473ffffffffffffffffffffffffffffffffffffffff1673ffffffffffffffffffffffffffffffffffffffff1673ffffffffffffffffffffffffffffffffffffffff1681526020019081526020015f20818154811061072257610721610ec7565b5b905f5260205f2090600202015f015485848151811061074457610743610ec7565b5b6020026020010181815250505f5f6001848154811061076657610765610ec7565b5b905f5260205f20015f9054906101000a900473ffffffffffffffffffffffffffffffffffffffff1673ffffffffffffffffffffffffffffffffffffffff1673ffffffffffffffffffffffffffffffffffffffff1681526020019081526020015f2081815481106107d9576107d8610ec7565b5b905f5260205f2090600202016001015f9054906101000a900467ffffffffffffffff1684848151811061080f5761080e610ec7565b5b602002602001019067ffffffffffffffff16908167ffffffffffffffff1681525050828061083c90610f81565b935050808060010191505061058e565b50808060010191505061057c565b508383839750975097505050505050909192565b5f5f5f5f5f3373ffffffffffffffffffffffffffffffffffffffff1673ffffffffffffffffffffffffffffffffffffffff1681526020019081526020015f2080549050116108f1576040517f08c379a00000000000000000000000000000000000000000000000000000000081526004016108e890611022565b60405180910390fd5b5f60015f5f3373ffffffffffffffffffffffffffffffffffffffff1673ffffffffffffffffffffffffffffffffffffffff1681526020019081526020015f208054905061093e9190611040565b90505f5f3373ffffffffffffffffffffffffffffffffffffffff1673ffffffffffffffffffffffffffffffffffffffff1681526020019081526020015f20818154811061098e5761098d610ec7565b5b905f5260205f2090600202015f01545f5f3373ffffffffffffffffffffffffffffffffffffffff1673ffffffffffffffffffffffffffffffffffffffff1681526020019081526020015f2082815481106109eb576109ea610ec7565b5b905f5260205f2090600202016001015f9054906101000a900467ffffffffffffffff1692509250509091565b5f602052815f5260405f208181548110610a2f575f80fd5b905f5260205f2090600202015f9150915050805f015490806001015f9054906101000a900467ffffffffffffffff16905082565b5f5ffd5b5f819050919050565b610a7981610a67565b8114610a83575f5ffd5b50565b5f81359050610a9481610a70565b92915050565b5f67ffffffffffffffff82169050919050565b610ab681610a9a565b8114610ac0575f5ffd5b50565b5f81359050610ad181610aad565b92915050565b5f5f60408385031215610aed57610aec610a63565b5b5f610afa85828601610a86565b9250506020610b0b85828601610ac3565b9150509250929050565b5f8115159050919050565b610b2981610b15565b82525050565b5f602082019050610b425f830184610b20565b92915050565b5f81519050919050565b5f82825260208201905092915050565b5f819050602082019050919050565b5f73ffffffffffffffffffffffffffffffffffffffff82169050919050565b5f610b9a82610b71565b9050919050565b610baa81610b90565b82525050565b5f610bbb8383610ba1565b60208301905092915050565b5f602082019050919050565b5f610bdd82610b48565b610be78185610b52565b9350610bf283610b62565b805f5b83811015610c22578151610c098882610bb0565b9750610c1483610bc7565b925050600181019050610bf5565b5085935050505092915050565b5f81519050919050565b5f82825260208201905092915050565b5f819050602082019050919050565b610c6181610a67565b82525050565b5f610c728383610c58565b60208301905092915050565b5f602082019050919050565b5f610c9482610c2f565b610c9e8185610c39565b9350610ca983610c49565b805f5b83811015610cd9578151610cc08882610c67565b9750610ccb83610c7e565b925050600181019050610cac565b5085935050505092915050565b5f81519050919050565b5f82825260208201905092915050565b5f819050602082019050919050565b610d1881610a9a565b82525050565b5f610d298383610d0f565b60208301905092915050565b5f602082019050919050565b5f610d4b82610ce6565b610d558185610cf0565b9350610d6083610d00565b805f5b83811015610d90578151610d778882610d1e565b9750610d8283610d35565b925050600181019050610d63565b5085935050505092915050565b5f6060820190508181035f830152610db58186610bd3565b90508181036020830152610dc98185610c8a565b90508181036040830152610ddd8184610d41565b9050949350505050565b610df081610a67565b82525050565b610dff81610a9a565b82525050565b5f604082019050610e185f830185610de7565b610e256020830184610df6565b9392505050565b610e3581610b90565b8114610e3f575f5ffd5b50565b5f81359050610e5081610e2c565b92915050565b5f819050919050565b610e6881610e56565b8114610e72575f5ffd5b50565b5f81359050610e8381610e5f565b92915050565b5f5f60408385031215610e9f57610e9e610a63565b5b5f610eac85828601610e42565b9250506020610ebd85828601610e75565b9150509250929050565b7f4e487b71000000000000000000000000000000000000000000000000000000005f52603260045260245ffd5b7f4e487b71000000000000000000000000000000000000000000000000000000005f52601160045260245ffd5b5f610f2b82610e56565b9150610f3683610e56565b9250828201905080821115610f4e57610f4d610ef4565b5b92915050565b7f4e487b71000000000000000000000000000000000000000000000000000000005f52604160045260245ffd5b5f610f8b82610e56565b91507fffffffffffffffffffffffffffffffffffffffffffffffffffffffffffffffff8203610fbd57610fbc610ef4565b5b600182019050919050565b5f82825260208201905092915050565b7f4e6f20686173682073746f7265642e00000000000000000000000000000000005f82015250565b5f61100c600f83610fc8565b915061101782610fd8565b602082019050919050565b5f6020820190508181035f83015261103981611000565b9050919050565b5f61104a82610e56565b915061105583610e56565b925082820390508181111561106d5761106c610ef4565b5b9291505056fea264697066735822122051bc39d4d3a5b8fe0c76526967b2a9d828ad94cb67161e32d39025eadb9fb3d164736f6c634300081c0033","linkReferences":{}},"methodIdentifiers":{"getAllStoredHashesAndTimestamps()":"6f427719","hashDocument()":"8c7fd3f0","storeHash(bytes32,uint64)":"5865a223","userRecords(address,uint256)":"e85d28b9","verifyDocument(bytes32,uint64)":"692d92a5"},"id":0}